:020000040000FA
:10000000020122022200000224000A180A00010054
:1000100001000000000000000000000001000100DD
:0A00200001000100010208000000C9
:10002B0002002EC0E0C0F0C0D075D000C000C004EC
:10003B00C005C006C007C2CFE523452260030200FE
:10004B00DBC287D3E5099410E508648094805046A1
:10005B00E5099400E50864809480403AE51645175D
:10006B0024FF9280E518451924FF9281E51A451B60
:10007B0024FF9282E51C451D24FF9283E51E451F3C
:10008B0024FF9284E520452124FF92860509E5098A
:10009B0070020508804FE50A450B24FF9280E50CA2
:1000AB00450D24FF9281E50E450F24FF9282E5104A
:1000BB00451124FF9283E512451324FF9284E51426
:1000CB00451524FF92860509E50970020508801580
:1000DB00AE24AF257C007D021201AEEFB52306EEF8
:1000EB00B52202D287D3E5239525E5246480F8E574
:1000FB002264809840087522007523008008052330
:10010B00E52370020522D007D006D005D004D0001D
:10011B00D0D0D0F0D0E032787FE4F6D8FD758126D0
:10012B0002016902026FE493A3F8E493A34003F680
:10013B008001F208DFF48029E493A3F85407240C20
:10014B00C8C333C4540F4420C8834004F456800101
:10015B0046F6DFE4800B010204081020408090007B
:10016B0003E47E019360BCA3FF543F30E509541FA9
:10017B00FEE493A360010ECF54C025E060A840B805
:10018B00E493A3FAE493A3F8E493A3C8C582C8CA83
:10019B00C583CAF0A3C8C582C8CAC583CADFE9DE56
:1001AB00E780BEC2D5EC30E709B2D5E4C39DFDE4D0
:1001BB009CFCEE30E715B2D5E4C39FFFE49EFE1224
:1001CB0001E4C3E49DFDE49CFC80031201E430D503
:1001DB0007C3E49FFFE49EFE22BC000BBE0029EF89
:1001EB008DF084FFADF022E4CCF875F008EF2FFF13
:1001FB00EE33FEEC33FCEE9DEC984005FCEE9DFEE1
:10020B000FD5F0E9E4CEFD22EDF8F5F0EE8420D227
:10021B001CFEADF075F008EF2FFFED33FD40079896
:10022B005006D5F0F222C398FD0FD5F0EA2285A730
:10023B002612026512027812027F12028D120252EE
:10024B001202868526A722E5C8540453C8FB75CB3A
:10025B003875CA9E43C80442C822E4F5A77597DED9
:10026B007597AD22120239C2B4D2AF80FE75A4FFCE
:10027B0075D4302275A57075D5702275A8A075A898
:06028B00A02275E34022F1
:00000001FF
