:020000040000FA
:1000000002012F85A76E12001C12031412031B128B
:10001000002612002E120322856EA722E4F5A77592
:0A00200097DE7597AD2275E34022CC
:10002B00020046E5C8540453C8FB75CB3875CA9E0D
:06003B0043C80442C82284
:100043000202B6C0E0C0F0C0D075D000C000C0044A
:10005300C005C006C007C2CFE56B456A6003020056
:10006300E8C287D3E5099407E508648094804003D8
:100073000200FDAF09EF75F00CA4240AF8E6FC08B2
:10008300E64C24FF9280EF75F00CA4240CF8E6FEF6
:1000930008E64E24FF9281EF75F00CA4240EF8E6D7
:1000A300FC08E64C24FF9282EF75F00CA42410F8B0
:1000B300E6FE08E64E24FF9283EF75F00CA42412AB
:1000C300F8E6FC08E64C24FF9284EF75F00CA424B8
:1000D30014F8E6FE08E64E24FF92860509E509704A
:1000E3000205088015AE6CAF6D7C007D021201BB6A
:1000F300EFB56B06EEB56A02D287D3E56B956DE576
:100103006C6480F8E56A6480984008756A00756BD2
:10011300008008056BE56B7002056AD007D006D036
:1001230005D004D000D0D0D0F0D0E032787FE4F610
:10013300D8FD75816E020176020302E493A3F8E40D
:1001430093A34003F68001F208DFF48029E493A32C
:10015300F85407240CC8C333C4540F4420C8834045
:1001630004F456800146F6DFE4800B010204081014
:10017300204080900246E47E019360BCA3FF543F7D
:1001830030E509541FFEE493A360010ECF54C0254C
:10019300E060A840B8E493A3FAE493A3F8E493A33C
:1001A300C8C582C8CAC583CAF0A3C8C582C8CAC5A0
:1001B30083CADFE9DEE780BEC2D5EC30E709B2D5FA
:1001C300E4C39DFDE49CFCEE30E715B2D5E4C39F88
:1001D300FFE49EFE1201F1C3E49DFDE49CFC800359
:1001E3001201F130D507C3E49FFFE49EFE22BC0059
:1001F3000BBE0029EF8DF084FFADF022E4CCF8753F
:10020300F008EF2FFFEE33FEEC33FCEE9DEC98404D
:1002130005FCEE9DFE0FD5F0E9E4CEFD22EDF8F5E9
:10022300F0EE8420D21CFEADF075F008EF2FFFED49
:1002330033FD4007985006D5F0F222C398FD0FD541
:10024300F0EA22026A0000026C000A20600A000140
:100253000001000000000000000000000001000099
:100263000000000000010000000100000000000188
:100273000001000000010000000000000001000078
:100283000000000000010000000000010000000069
:100293000000000000010001000100000000000058
:1002A300000000010001000000000000000002083F
:1002B300000000C0E0C0D020821E7402256DF56DE1
:1002C300E4356CF56CD3E56D94A0E56C64809480A3
:1002D3004006756C00756DA020831974FE256DF5BD
:1002E3006D74FF356CF56CC3648094805006756C37
:1002F30000756D0075A70053E6FDD0D0D0E0321233
:100303000003C2B4D2AF3082FD3083FA43E60280E9
:10031300F575A4FF75D4302275A57075D570227557
:06032300A8A075A8A022AD
:00000001FF
