:020000040000FA
:10000000020B16C0E0C083C08253917F9002A6E02D
:1000100004F070069002A5E004F0D082D083D0E016
:0100200032AD
:07002300020C8B1210632296
:07002B00020CFD75A8F02294
:10003300020A6C900292EFF012101EAD07AC06900C
:1000430002A1E0FEA3E0FFC3ED9FFFEC9EFED3EF12
:1000530094C8EE94004011900292E04440F0AF0542
:0E0063009002A1ECF0A3EFF0900292E0FF22D9
:10007300020003E5222477F582E43402F583E005E8
:100083002222900274300703900277E475F0011284
:10009300082F02068B2000E97F2ED2008018EF5430
:1000A3000F2490D43440D4FF30040BEF24BFB41A90
:1000B3000050032461FFE523600215230526E5268E
:1000C3007002052530070E900274E475F0011208E2
:1000D3002FEF02081D0200267403D2078003E4C237
:1000E30007F522900274120846E4F523F525F52658
:1000F300E52360077F201200B980F57524FFC20154
:10010300C200C202C203C205C206C208120085FFB2
:10011300700D3007057F001200CAAF26AE2522B44A
:10012300255FC2D5C204120085FF24D0B40A005053
:100133001A75F00A782330D50508B6FF0106C6A460
:1001430026F620D5047002D20380D924CFB41A0036
:10015300EF5004C2E5D2040202CBD20180C6D20022
:1001630080C0D20280BCD2D580BAD20580B47F20B1
:100173001200B92002077401B5230040F112007682
:10018300FF1200B90200F3D208D20680951200765E
:10019300FB120076FA120076F94A4B7006799C7AC4
:1001A300037BFF20022EE523602A7E008E82758367
:1001B300001206A460060EEE652470F0C2D5EBC0F3
:1001C300E0EAC0E0E9C0E0EE120312D0E0F9D0E0CB
:1001D300FAD0E0FB12068BFF60AAEBC0E0EAC0E0B6
:1001E300E9C0E01200B9D0E02401F9D0E03400FA0C
:1001F300D0E0FBE5240460DCD524D980877BFF7A3B
:1002030003790ED202809C791080027908C206C25B
:10021300088008D2D5790A8004790AC2D5E5240476
:100223007002F524E4FAFDFEFF120076FC7B082041
:100233000113120076FD7B1030000A120076FE12C5
:100243000076FF7B20EC3382D592D55013C3E43084
:1002530000069FFFE49EFEE42001039DFDE49CFC59
:10026300E4CBF8C201EC700CCFCECDCCE824F8F887
:1002730070F38017C3EF33FFEE33FEED33FDEC3342
:10028300FCEB33FB994002FB0FD8E9EB300105F897
:10029300D0E0C448B201C0E00AEC4D4E4F78207B59
:1002A3000070C2EAB5240040BCC0E0120314D0F0D1
:1002B300D0E0200104C4C0E0C4B201C0F01200A227
:1002C300D0F0D5F0EB0200F312084F019053020A6D
:1002D3005801614C015D42020E4F02164402164959
:1002E300017643021C550200460200450200470303
:1002F300BC5001652D01692E018C2B016D23018AF0
:100303002003A52A012548000001843F3F3F0079CF
:100313000AA2D5200314300509B910020404B90850
:100323000104A2D52006025001042002689202B5FE
:1003330023005034C0E07F203003197F30A20272C3
:10034300067205500F12036BC202C206C205C20831
:100353007F30800F300503E9C0E01200B930050398
:10036300D0E0F9D0E0B523CC3005177F30B9100CBD
:100373001200B97F583004077F788003B90803124D
:1003830000B93002057F2D0200B97F202008F87FD5
:100393002B2006F322920280CF286E756C6C290005
:1003A300D2011200763001F8C201782330D501085A
:1003B300F60201252D504349581200762403B40553
:1003C300004001E49003B7931200AA743A1200AA02
:1003D300D20375230402020AE4900212F0A3F0E4AC
:1003E300900214F0A3F0900214E0FEA3E0FFC39484
:1003F3001EEE648094805037900212E0FCA3E0FD6F
:1004030090001275F011EF1207E4EE75F011A425B8
:1004130083F583E5822DF582E5833CF583E4F09053
:100423000215E004F070BF900214E004F080B7906E
:100433000213E004F07006900212E004F09002123E
:10044300E07004A3E064127096120F0FC2B4C2A24C
:10045300D2AF1210C1120ECA900216E07002A3E0CE
:1004630070030204FE90000EE07002A3E06003023A
:1004730004FE90022AE0FEA3E0FF900210EEF0A338
:10048300EFF07C007D111206D174122FF974003E37
:10049300FA7B0190022CA3E075F00AA4FD120BA2D3
:1004A300900229E004F07006900228E004F0E49042
:1004B3000216F0A3F0C3900229E09410900228E002
:1004C3006480948050030205D8E4F0A3F090022BDB
:1004D300E004F0700690022AE004F090022DE0049C
:1004E300F0700690022CE004F090022CE07004A35C
:1004F300E0640C60030205D80205CE900216E0709A
:1005030002A3E070030205D890000EE07002A3E09E
:1005130070030205D890022AE0FEA3E0FF900210C8
:10052300EEF0A3EFF090027774FFF0A37411F0A341
:100533007403F0900228E0FCA3E0FD90001275F034
:1005430011EF1207E4EE75F011A42583F583E5821C
:100553002DF582E5833CF583E090027AF07B017A06
:100563000079041200DB7B017A00790490022CA34A
:10057300E075F00AA4FD120BA290022DE004F070C6
:100583000690022CE004F0900229E004F07006903B
:100593000228E004F0E4900216F0A3F0C3900229CD
:1005A300E09410900228E0648094804012E4F0A369
:1005B300F090022BE004F0700690022AE004F09021
:1005C300022CE07004A3E0640C700A120FE8E490BC
:1005D300022CF0A3F0900010E07002A3E07003027D
:1005E300067FE4900010F0A3F090022CF0A3F01229
:1005F3000FE8E4900212F0A3F07B017A007912FD78
:10060300120BA27B017A0079237D0A120BA27B01D4
:100613007A0079347D14120BA27B017A0079457D2F
:100623001E120BA27B017A0079567D28120BA27B46
:10063300017A0079677D32120BA27B017A007989F6
:100643007D3C120BA27B017A00799A7D50120BA29A
:100653007B017A0079AB7D5A120BA27B017A007978
:10066300BC7D64120BA27B017A0079CD7D6E120BE7
:10067300A27B017A0079DE7D78120BA25391FB20D5
:10068300A6FD439104020458BB010689828A83E0D4
:10069300225002E722BBFE02E32289828A83E4938B
:1006A30022BB010CE58229F582E5833AF583E0223A
:1006B3005006E92582F8E622BBFE06E92582F8E228
:1006C30022E58229F582E5833AF583E49322EF8DCF
:1006D300F0A4A8F0CF8CF0A428CE8DF0A42EFE2297
:1006E300C5F0F8A3E028F0C5F0F8E58215827002A2
:1006F3001583E038F02275F008758200EF2FFFEEC6
:1007030033FECD33CDCC33CCC58233C5829BED9A3A
:10071300EC99E58298400CF582EE9BFEED9AFDEC98
:1007230099FC0FD5F0D6E4CEFBE4CDFAE4CCF9A8DE
:100733008222B800C1B90059BA002DEC8BF084CFE6
:10074300CECDFCE5F0CBF97818EF2FFFEE33FEEDBD
:1007530033FDEC33FCEB33FB10D703994004EB99E7
:10076300FB0FD8E5E4F9FA227818EF2FFFEE33FEFA
:10077300ED33FDEC33FCC933C910D7059BE99A402F
:1007830007EC9BFCE99AF90FD8E0E4C9FAE4CCFB47
:100793002275F010EF2FFFEE33FEED33FDCC33CC9B
:1007A300C833C810D7079BEC9AE899400AED9BFD24
:1007B300EC9AFCE899F80FD5F0DAE4CDFBE4CCFA37
:1007C300E4C8F922EB9FF5F0EA9E42F0E99D42F07E
:1007D300E89C45F022ECF0A3EDF0A3EEF0A3EFF0DC
:1007E30022A42582F582E5F03583F58322EC8EF091
:1007F300A4CCC5F0CCCDF8EFA4CEC5F02DFDE43CE0
:10080300FCE8A42EC8C5F03DFDE43CFCEFA4FFE5E5
:10081300F028FEE43DFDE43CFC22BB010689828A0C
:1008230083F0225002F722BBFE01F322F8E0FBA380
:10083300A3E0F925F0F0E582158270021583E0FA52
:1008430038F022EBF0A3EAF0A3E9F022D083D082C0
:10085300F8E4937012740193700DA3A393F87401D9
:1008630093F5828883E4737402936860EFA3A3A370
:1008730080DF9002741207D8E47F99FEFDFC90029A
:1008830074E0F8A3E0F9A3E0FAA3E0FBD31207C7EF
:1008930050099002787401F0020988E47F797E0A96
:1008A300FDFC900274E0F8A3E0F9A3E0FAA3E0FBF7
:1008B300C31207C7401FE47FA57E0BFDFC900274A3
:1008C300E0F8A3A3A3E0D31207C7500990027874FA
:1008D30002F0020988E47F4F7E09FDFC900274E078
:1008E300F8A3E0F9A3E0FAA3E0FBC31207C7401E95
:1008F300E47F7B7E0AFDFC900274E0F8A3A3A3E0EF
:10090300D31207C750089002787403F08077E47F0E
:10091300DC7E05FDFC900274E0F8A3E0F9A3E0FAA5
:10092300A3E0FBC31207C7401EE47F087E07FDFC5C
:10093300900274E0F8A3A3A3E0D31207C750089072
:1009430002787404F0803EE47F267E07FDFC90026B
:1009530074E0F8A3E0F9A3E0FAA3E0FBC31207C72E
:10096300401EE47F527E08FDFC900274E0F8A3A3CE
:10097300A3E0D31207C750089002787405F08005EE
:10098300E4900278F0900278E0FF2290027AEFF090
:10099300A3EDF0A3EBF090027DE0FBA3E0FAA3E06C
:1009A300F912068B7003020A6B900280F0C3648015
:1009B30094A04008E0D3648094FE400690028074C3
:1009C30020F090027BE0D394784003020A57900210
:1009D30080E0FF3395E0FE90027CE075F064A42F85
:1009E300F582E5F03EF583E58224FCF582E5833468
:1009F30010F583E493F990027BE0FF131313541F64
:100A0300FE90027AE02EFDF8C000E6FA08E6FBEF5E
:100A13005407FCE47EFFA804088005CEC313CE135D
:100A2300D8F9F4FFEEF45AFEEB5FD000A60608F601
:100A3300A805C000E6FA08E6FBE9FEE4A80408807E
:100A430005CEC313CE13D8F9FFEA4EFEEB4FD00009
:100A5300A60608F690027EE475F0011206E3900202
:100A63007BE02406F002099922C0E0C0F0C083C0F5
:100A730082C0D075D000C000C001C002C003C00452
:100A8300C005C006C00775A720E5F854F0F4440F6D
:100A930052F8AF9BEF30E36090029CE06038E5A131
:100AA30020E033300A0C90029FE0F8A6A3E004F0A4
:100AB3008006900273E5A3F090029CE014F0E070CE
:100AC3000D300C05300902D2FA121036800890025C
:100AD3009CE090029EF090029DE0601C30F919307A
:100AE3000B0D9002A0E0F8E6F5A3E004F080037597
:100AF300A30090029DE014F0D007D006D005D004E7
:100B0300D003D002D001D000D0D0D082D083D0F097
:100B1300D0E032787FE4F6D8FD758136020B5D02B2
:100B230003DBE493A3F8E493A34003F68001F20804
:100B3300DFF48029E493A3F85407240CC8C333C417
:100B4300540F4420C8834004F456800146F6DFE482
:100B5300800B0102040810204080900C19E47E01F0
:100B63009360BCA3FF543F30E509541FFEE493A3F5
:100B730060010ECF54C025E060A840B8E493A3FA07
:100B8300E493A3F8E493A3C8C582C8CAC583CAF093
:100B9300A3C8C582C8CAC583CADFE9DEE780BE90A1
:100BA3000277EDF0900274EBF0A3EAF0A3E9F01200
:100BB3000F46900279EFF0E4900278F07F27E4FB90
:100BC300FD120FCAC007900279E0FFC374809FFF34
:100BD300E49400C313EF13FD900274E0F9A3E0FA69
:100BE300A3E090027DC9F0A3EAF0A3E9F0900278B4
:100BF300E0FBD00712098E900277E0FFA3E02FFFFE
:100C03007B007A007927120DC4900278E004F0E0AB
:100C1300C3940840A7224202A100004102A300415D
:100C230002A4004202A50000C109C10CC10DC10A02
:100C3300C10B41029C0041029D0041029E00410202
:100C4300A00041029F0041022E004100020041002A
:100C5300030041000001410001004202160000426E
:100C63000228000042022A0000420212000042024F
:100C730014000042022C0000420210000042001047
:100C8300000042000E000000C0E0C0F0C083C0823C
:100C9300C0D075D000C002C004C005C0073098475B
:100CA30090022EE07004900002F0900001E599F0AC
:100CB300E0FF900228E0FCA3E0FDA3E0FAA3E090AC
:100CC300001275F0111207E4EA75F011A42583F5FB
:100CD30083E5822DF582E5833CF583EFF0900216E0
:100CE300E4F0A304F0C298D007D005D004D002D01A
:100CF300D0D082D083D0F0D0E032C0E0C0F0C08347
:100D0300C082C0D075D000C000C001C002C003C003
:100D130004C005C006C00753C87F53C8FB9002A395
:100D2300E0B401147402F07F08A3E0900272F07B38
:100D330002E4FD120D61800B9002A3E0B40304C230
:100D4300A6E4F0D007D006D005D004D003D002D05B
:100D530001D000D0D0D082D083D0F0D0E032900246
:100D630072E090029CF0A3F0A3F09002A0EFF09049
:100D7300029FEDF0EB13920AEBA2E1920BAFA77582
:100D8300A720200D031210B0439A0453F80F539B6E
:100D9300EF439A08300C05300902C2FA30F91F906C
:100DA300029DE06019300B0D9002A0E0F8E6F5A378
:100DB300E004F08003E4F5A390029DE014F08FA714
:100DC3002290027AEFF0A3EBF0A3EAF0A3E9F07F1D
:100DD3008012003690027EEFF090027AE004FF1258
:100DE3000F7590027FEFF0E4FF90027BE0FBA3E03E
:100DF300FAA3E0F98F827583001206A4FE74802F94
:100E0300F582E43402F583EEF00FEFB410DBE490E7
:100E13000290F0A3F07B017A02797E7D14020E79B1
:100E2300900275EFF0A3EDF0600574FFF08005E428
:100E3300900276F07F80120036900277EFF09002F6
:100E430075E004FF120F75900278EFF0E4FF900253
:100E530076E0FE74792FF582E43402F583EEF00F29
:100E6300EFB410EAE4900289F0A3F07B017A0279EF
:100E7300777D14020E79900292EBF0A3EAF0A3E9D6
:100E8300F09002A3E070FA9002A37401F0A3EDF0D6
:100E9300E4FFEFC39D501D900292E0FBA3E0FAA391
:100EA300E0F98F827583001206A4FE74082FF8A65A
:100EB300060F80DEAFA7E4F5A775CFFF75CEF4D29A
:100EC300A643C8048FA722D2EC30EDFDC2EDAFBD1F
:100ED300AEBE7C0C7DE41207F0E4FB7A04F9F81251
:100EE3000735120875EFB40208900010E4F0A3046C
:100EF300F0EFB4051690000EE07002A3E07F0070DF
:100F0300027F0190000EE4F0A3EFF022900274E55B
:100F1300A7F01210DC12107712108A12110A1211A4
:100F2300111210E61210FA12100512104D1210F0E1
:100F33001210CF12111812002E12109D900274E09D
:100F4300F5A72290027AEBF0A3EAF0A3E9F0E4FF1D
:100F530090027AE0FBA3E0FAA3E0F9AE070F8E82DA
:100F63007583001206A470E81FEF75F006A424022F
:100F7300FF22EF540FC454F0FEEF54F0C4540F4E4D
:100F8300FF543325E025E0FEEF54CC1313543F4EBA
:100F9300FF545525E0FEEF54AAC3134EFF22AB07BF
:100FA300AA0612101E900274EEF0A3EFF012101EA8
:100FB300900274E0FCA3E0FDC3EF9DFFEE9CFEC333
:100FC300EF9BEE9A40E722AE05EE131313541FFE78
:100FD300EB131313541FFDEEC39D5008EF2EF8E4DB
:100FE300F60E80EC22E4900274F0900274E0FFC3EA
:100FF3009480500DE4FD120E23900274E004F080FF
:10100300E922E59154045391FB7595F8759406759F
:1010130093F8759206439104429122AFA775A710E6
:1010230053E67F9002A5E0FCA3E043E6808FA7AEE2
:1010330004FF229002A37403F0AFA7E4F5A775CFD2
:10104300FF75CEFC43C8048FA722AF885388AF75C2
:101053008CC0758D96EF5440FEEF54104E4288229B
:10106300EFB40A083099FDC29975990D3099FDC204
:10107300998F99227580FF75A47075F1FF75D41F40
:10108300E4F5FE75FDFF227590FF75A50375F27FEC
:1010930075D5FEE4F5EE75EDFF22E4F5B275BB0DF3
:1010A30075DF2375BC0875B90343E8C022E5A1A227
:1010B300E6920CE5F8540C24FF9209D20D22C2A645
:1010C300D2B47F0A7E00120FA1020FE875A20B4370
:1010D300A14053F8F343F80122E4F5A77597DE75B1
:1010E30097AD22E4F5A775E34075E10322758E0AF7
:1010F30075892243885022E4F5A9E5A930E7FB224C
:101103003078253034780075A64975A7202275A755
:1011130020759C1022439810220020505020C0605C
:10112300601040000000000000702070F810F830DC
:10113300F870700000080080707070F070E0F8F8CC
:10114300708870388880888870F070F078F88888A4
:10115300888888F870007020004000800008003004
:1011630000802010806000000000000000400000AC
:10117300000000003020600000000000000020504C
:101183005078C8902020202020000000008860882C
:101193001030804008888860601000408808888884
:1011A30088908080888820109080D8888888888854
:1011B300802088888888880840001050002000809C
:1011C3000008004878800000802000000000000034
:1011D300004000000000000040201040000000001C
:1011E30000002050F88010A0404010A8200000000C
:1011F300089820082050F080108888606020F8202C
:10120300080888888088808080882010A080A8C8EB
:101213008888888880208888885088104080108833
:10122300001070B07068704088B060309020D0B00B
:1012330070F068B070E08888888888F8402010A82B
:10124300000000000000200050702040004010709B
:10125300F800F80010A82010109008F02070780013
:1012630000400010106888F08088F0F0B8F8201073
:10127300C080A8A888F088F070208888A820502013
:1012830040401000000008C8809888E088C82010FB
:10129300A020A8C8888898C880408888885088106B
:1012A300802008100000000000000000F80840A89B
:1012B300004010A82060000020C8202008F80888FB
:1012C300408808606020F82020A8F8888088808003
:1012D30088882010A08088988880A8A00820888803
:1012E300A850204040201000000078888088F840F3
:1012F30078882010C020A88888F07880704088887B
:10130300A82078204020100000000000000000000A
:1013130050F098900020202020200060408820403A
:1013230088108888408810602010004000A88888B2
:10133300889080808888209090808888888090908A
:1013430008208850A888208040101000000088885A
:101353008888804008882090A0208888888008801A
:1013630008489850A8500840402010000000000092
:10137300000020005020186800104000004000606A
:10138300807070F8701070704070600040080080CA
:10139300207088F070E0F8807088706088F8888822
:1013A30070806888F0207020508820F870087000E2
:1013B300FC0078F070787040708870609070888856
:1013C30070800880F0306820508870F8302060000A
:1013D300000000000000000000000000000000000A
:1013E30000000000000000000000000000000000FA
:1013F30000000000000000000000000000000000EA
:1014030000000000000000000000000000000000D9
:1014130000000000000000000000000000000000C9
:1014230000000000000000000000000000000000B9
:09143300000000000000000000B0
:00000001FF
