:020000040000FA
:0A00000002010DC2A6D2B40203E40F
:10000B000201F8E59154045391FB7595F87594062C
:10001B007593F875920643910442912275A640227E
:03002B0002019936
:100033000200768F2C8D2DE52D6005752DFF800335
:10004300E4F52D7F801203AD8F2EE52C04FF120300
:10005300568F2FE4FF74302FF8A62D0FBF10F6E450
:0E006300F540F541FB7A00792E7D140202E88B
:1000730002041DC0E0C0F0C083C082C0D075D000B0
:10008300C000C001C002C003C004C005C006C00751
:1000930075A720E5F854F0F4440F52F8AF9BEF3006
:1000A300E34DE5086031E5A120E02C300113850C18
:1000B30082850B83E5A3F0050CE50C7007050B8027
:1000C3000385A326D5080D300305300002D2FA12AA
:1000D30003F8800385080AE509601430F91130023A
:1000E30009A80DE2F5A3050D800375A3001509D03A
:1000F30007D006D005D004D003D002D001D000D061
:10010300D0D082D083D0F0D0E032787FE4F6D8FD2F
:1001130075815402015402042DE493A3F8E493A3DC
:100123004003F68001F208DFF48029E493A3F85436
:1001330007240CC8C333C4540F4420C8834004F4B9
:1001430056800146F6DFE4800B01020408102040CC
:1001530080900329E47E019360BCA3FF543F30E504
:1001630009541FFEE493A360010ECF54C025E06041
:10017300A840B8E493A3FAE493A3F8E493A3C8C50F
:1001830082C8CAC583CAF0A3C8C582C8CAC583CA00
:10019300DFE9DEE780BEC0E0C0F0C083C082C0D02C
:1001A30075D000C000C001C002C003C004C005C0B8
:1001B30006C00753C87F53C8FBE510B4011275107E
:1001C300027F008511257B02E4FDFC120250800AA8
:1001D300E510B40305C2A6751000D007D006D005FC
:1001E300D004D003D002D001D000D0D0D082D083AD
:1001F300D0F0D0E032C0E0C0F0C083C082C0D07580
:10020300D000C000C001C002C003C004C005C006C6
:10021300C007B2937BFF7A0479A3120485C28C755D
:100223008C00758AE6D28C740A2515F515E435140D
:10023300F514D007D006D005D004D003D002D001E6
:10024300D000D0D0D082D083D0F0D0E03285250842
:1002530085250985250A8F0D8C0B8D0CEB139201D7
:10026300EBA2E19202AFA775A72020040312040CAE
:10027300439A0453F80F539BEF439A083003053016
:100283000002C2FA30F915E5096011300209A80D20
:10029300E2F5A3050D8003E4F5A315098FA722BB9F
:1002A300010689828A83E0225002E722BBFE02E331
:1002B3002289828A83E49322BB010CE58229F58299
:1002C300E5833AF583E0225006E92582F8E622BB6E
:1002D300FE06E92582F8E222E58229F582E5833AE2
:1002E300F583E493228B428A438944E51070FC75BD
:1002F30010018D11E4FFEFC39D5018AB42AA43A92F
:10030300448F827583001202BBFE74002FF8EEF255
:100313000F80E3AFA7E4F5A775CFFF75CEF4D2A6A0
:1003230043C8048FA722020E000001100001110030
:1003330002120000C100C103C104C101C1020108CE
:1003430000010900010A00010D00020B0000021464
:10035300000A00EF540FC454F0FEEF54F0C4540FDE
:100363004EFF543325E025E0FEEF54CC1313543FE6
:100373004EFF545525E0FEEF54AAC3134EFF2285CA
:10038300A7271204551204691204951200271204B8
:100393009C12045F12047312000E12044A12047CAE
:1003A30012043D12048E8527A7228F421203CEC367
:1003B300EF950FFDEE950EFCD3ED94C8EC94004041
:1003C300074342408E0E8F0FAF4222AFA775A7108F
:1003D30053E67FAD13AC1243E6808FA7AE04AF059F
:1003E30022E4F52BE4FDAF2B120036052BE52BC3DE
:1003F300948040F022751003AFA7E4F5A775CFFFF3
:1004030075CEFC43C8048FA722E5A1A2E69203E5BB
:10041300F8540C24FF9200D20422C0E053917F05CC
:1004230013E51370020512D0E032120382D2AF53E8
:1004330091FB20A6FD43910480F575A20B43A140D7
:1004430053F8F343F80122C28CE4F58C758AE6D2A3
:100453008C22E4F5A77597DE7597AD22E4F5A775B1
:10046300E34075E1022275A44075D43F75FE042272
:10047300E4F5A9E5A930E7FB22758E0A758921D237
:100483008C228B288A29892A02000375E68275A8A3
:10049300E22275A50375D5FE2275A720759C10224F
:0604A30068656C6C6F003F
:00000001FF
