:020000040000FA
:0A000000020666C2A6D2B4020A0E80
:10000B00020940ED131313541FFEEB131313541F6C
:0F001B00FDEEC39D5008EF2EF8E4F60E80EC22A8
:07002B000206F275A6402257
:1000330002054175A20B43A14053F8F343F8012293
:100043000209ACEF540FC454F0FEEF54F0C4540F44
:100053004EFF543325E025E0FEEF54CC1313543FF9
:0F0063004EFF545525E0FEEF54AAC3134EFF2263
:10007300020A47E537242BF8E605372278283007AC
:1000830002782BE475F0011206300205D82000EB4C
:100093007F2ED2008018EF540F2490D43440D4FF25
:1000A30030040BEF24BFB41A0050032461FFE5387A
:1000B30060021538053BE53B7002053A30070D78C1
:1000C30028E475F001120630EF02061E02091974C6
:1000D30003D2078003E4C207F5378B288A29892ACC
:1000E300E4F538F53AF53BE53860077F201200B1B7
:1000F30080F57539FFC201C200C202C203C205C244
:1001030006C20812007FFF700D3007057F00120042
:10011300C2AF3BAE3A22B4255FC2D5C20412007F00
:10012300FF24D0B40A00501A75F00A783830D50588
:1001330008B6FF0106C6A426F620D5047002D20332
:1001430080D924CFB41A00EF5004C2E5D2040202CE
:10015300C2D20180C6D20080C0D20280BCD2D58078
:10016300BAD20580B47F201200B12002077401B512
:10017300380040F1120076FF1200B10200EAD20803
:10018300D2068095120076FB120076FA120076F9F9
:100193004A4B700679937A037BFF20022EE5386081
:1001A3002A7E008E827583001205F160060EEE65CD
:1001B3003970F0C2D5EBC0E0EAC0E0E9C0E0EE126E
:1001C3000309D0E0F9D0E0FAD0E0FB1205D8FF60D4
:1001D300AAEBC0E0EAC0E0E9C0E01200B1D0E0243D
:1001E30001F9D0E03400FAD0E0FBE5390460DCD556
:1001F30039D980877BFF7A037905D202809C7910F5
:1002030080027908C206C2088008D2D5790A800420
:10021300790AC2D5E539047002F539E4FAFDFEFF27
:10022300120076FC7B08200113120076FD7B103050
:10023300000A120076FE120076FF7B20EC3382D593
:1002430092D55013C3E43000069FFFE49EFEE420E2
:1002530001039DFDE49CFCE4CBF8C201EC700CCFE0
:10026300CECDCCE824F8F870F38017C3EF33FFEE5C
:1002730033FEED33FDEC33FCEB33FB994002FB0F14
:10028300D8E9EB300105F8D0E0C448B201C0E00A78
:10029300EC4D4E4F78207B0070C2EAB5390040BC6C
:1002A300C0E012030BD0F0D0E0200104C4C0E0C4CE
:1002B300B201C0F012009AD0F0D5F0EB0200EA12BE
:1002C300064001875302015801584C01544202056C
:1002D3004F020D44020D49016D4302135501F746C8
:1002E30001F74501F74703B350015C2D01602E016F
:1002F300832B016423018120039C2A011C480000F5
:10030300017B3F3F3F00790AA2D520031430050942
:10031300B910020404B9080104A2D5200602500151
:10032300042002689202B538005034C0E07F2030C8
:1003330003197F30A20272067205500F120362C2C4
:1003430002C206C205C2087F30800F300503E9C030
:10035300E01200B1300503D0E0F9D0E0B538CC307D
:1003630005177F30B9100C1200B17F583004077F96
:10037300788003B908031200B13002057F2D020013
:10038300B17F202008F87F2B2006F322920280CF32
:10039300286E756C6C2900D2011200763001F8C208
:1003A30001783830D50108F602011C2D5043495815
:1003B3001200762403B405004001E49003AE9312C7
:1003C30000A2743A1200A2D2037538040202018F0C
:1003D3002E8D2F8B30AB31AA32A9331205D870037F
:1003E300020494F534C3648094A04009D3E53464D3
:1003F3008094FE4003753420E52FD3947840028027
:100403007CAF34EF3395E0FE75F064E530A42FF54F
:1004130082E5F03EF583E5822487F582E583340A9D
:10042300F583E493F9E52F131313541F252EFDF8D9
:10043300C000E6FA08E6FBE52F5407FCE47EFFA8BC
:1004430004088005CEC313CE13D8F9F4FFEEF45A93
:10045300FEEB5FD000A60608F6A805C000E6FA0882
:10046300E6FBE9FEE4A804088005CEC313CE13D847
:10047300F9FFEA4EFEEB4FD000A60608F6740125FD
:1004830033F533E43532F5327406252FF52F0203A5
:10049300D8221208EED2AF75EE011200037BFF7A69
:1004A3000979E1E4FD1207A3E51B451A603DE4F574
:1004B300A753E6FD740A2509F509E43508F508E4B0
:1004C300F50A752BFF752C09752DF585182E8519E1
:1004D3002FFB7A00790A1200D27B007A00790AADE9
:1004E300091207A3E4F51AF51BD2AFE51745166009
:1004F30041E4F50A752BFF752C09752DF585182E2A
:1005030085192FFB7A00790A1200D27B007A0079D1
:100513000A7D0A1207A3E4F516F517E515640345EA
:1005230014700743E602F514F5150515E515700279
:1005330005145391FB20A6FD4391040204ABC0E0D4
:10054300C0F0C083C082C0D075D000C000C001C05D
:1005530002C003C004C005C006C00775A720E5F8A4
:1005630054F0F4440F52F8AF9BEF30E34DE549608C
:1005730031E5A120E02C300A13854D82854C83E5BB
:10058300A3F0054DE54D7007054C800385A327D5E2
:10059300490D300C05300902D2FA120A2280038574
:1005A300494BE54A601430F911300B09A84EE2F5C6
:1005B300A3054E800375A300154AD007D006D005C6
:1005C300D004D003D002D001D000D0D0D082D083C9
:1005D300D0F0D0E032BB010689828A83E022500248
:1005E300E722BBFE02E32289828A83E49322BB01D2
:1005F3000CE58229F582E5833AF583E0225006E98A
:100603002582F8E622BBFE06E92582F8E222E5828E
:1006130029F582E5833AF583E49322BB01068982B7
:100623008A83F0225002F722BBFE01F322FAE6FB93
:100633000808E6F925F0F618E6CA3AF622D083D080
:1006430082F8E4937012740193700DA3A393F8746A
:100653000193F5828883E4737402936860EFA3A324
:10066300A380DF787FE4F6D8FD7581600206AD02D2
:100673000495E493A3F8E493A34003F68001F208FE
:10068300DFF48029E493A3F85407240CC8C333C4CC
:10069300540F4420C8834004F456800146F6DFE437
:1006A300800B0102040810204080900876E47E014C
:1006B3009360BCA3FF543F30E509541FFEE493A3AA
:1006C30060010ECF54C025E060A840B8E493A3FABC
:1006D300E493A3F8E493A3C8C582C8CAC583CAF048
:1006E300A3C8C582C8CAC583CADFE9DEE780BEC026
:1006F300E0C0F0C083C082C0D075D000C000C0018C
:10070300C002C003C004C005C006C00753C87F535E
:10071300C8FBE51EB40112751E027F00851F267BF0
:1007230002E4FDFC120751800AE51EB40305C2A6CC
:10073300751E00D007D006D005D004D003D002D058
:1007430001D000D0D0D082D083D0F0D0E032852643
:100753004985264A85264B8F4E8C4C8D4DEB139243
:100763000AEBA2E1920BAFA775A720200D03120A93
:1007730036439A0453F80F539BEF439A08300C0502
:10078300300902C2FA30F915E54A6011300B09A8A5
:100793004EE2F5A3054E8003E4F5A3154A8FA72285
:1007A3008D2B8B288A29892A1209668F2DE4F52C33
:1007B3007F51E4FBFD12000EC007C37480952DFF2B
:1007C300E49400C313EF13FD852831852932852A6C
:1007D30033D007AB2C1203D2E52C252BFF7B007AF9
:1007E3000079511207F3052CE52CC3940840C1226C
:1007F3008F2E8B2F8A3089317F8012098B8F32E5C0
:100803002E04FF1200468F33E4FFAB2FAA30A93129
:100813008F827583001205F1FE74342FF8A6060F3C
:10082300BF10E7E4F544F545FB7A0079327D140205
:1008330008358B468A478948E51E70FC751E018D75
:100843001FE4FFEFC39D5018AB46AA47A9488F8208
:100853007583001205F1FE74002FF8EEF20F80E3AA
:10086300AFA7E4F5A775CFFF75CEF4D2A643C804AE
:100873008FA722021C0000011E00011F00024F006F
:1008830000C109C10CC10DC10AC10B014900014AD4
:1008930000014B00014E00024C0000021800000250
:1008A3001600000208000A021A00000214000000E9
:1008B3008F298D2AE52A6005752AFF8003E4F52A2E
:1008C3007F8012098B8F2BE52904FF1200468F2CA2
:1008D300E4FF742D2FF8A62A0FBF10F6E4F53DF5BB
:1008E3003EFB7A00792B7D1402083585A728120A6E
:1008F30062120A76120A9912002E120AA0120A6CC8
:10090300120A801209C8120A57120A8912003612F3
:100913000A928528A722EFB40A07740D12092474DA
:100923000A309811A899B8130CC2983098FDA89969
:10093300C298B811F63099FDC299F59922C0E0C06A
:10094300D0751600751701B293C28C758C00758A29
:10095300E6D28C74642519F519E43518F518D0D04E
:10096300D0E0328B2E8A2F8930E4FFAB2EAA2FA939
:1009730030AE070F8E827583001205F170ED1FEF05
:1009830075F006A42402FF228F461209F8C3EF95DF
:100993001DFDEE951CFCD3ED94C8EC940040074379
:1009A30046408E1C8F1DAF4622C0E020820BE51B04
:1009B300451A7005F51A751B012083067518007515
:1009C3001900D0E032E59154045391FB7595F87505
:1009D30094067593F87592064391044291225477D5
:1009E3006F20446576696174696F6E732054656323
:1009F3006800256400AFA775A71053E67FAD50AC20
:100A03004F43E6808FA7AE04AF0522E4F528E4FD4B
:100A1300AF281208B30528E528C3948040F0227557
:100A23001E03AFA7E4F5A775CFFF75CEFC43C8043B
:100A33008FA722E5A1A2E6920CE5F8540C24FF92BD
:100A430009D20D22C0E053917F0550E55070020595
:100A53004FD0E032C28CE4F58C758AE6D28C22E466
:100A6300F5A77597DE7597AD22E4F5A775E3407595
:100A7300E1022275A44075D43F75FE0422E4F5A972
:100A8300E5A930E7FB22758E0A758921D28C227580
:100A9300E68275A8E22275A50375D5FE2275A72007
:100AA300759C10220020505020C060601040000050
:100AB30000000000702070F810F830F8707000002B
:100AC300080080707070F070E0F8F87088703888F3
:100AD30080888870F070F078F88888888888F87043
:100AE300007020004000800008003000802010804B
:100AF3006000000000000000400000000000003023
:100B030020600000000000000020505078C89020B2
:100B130020202020000000008860881030804008DA
:100B23008888606010004088088888889080808862
:100B33008820109080D88888888888802088888832
:100B43008888084000105000200080000800487882
:100B53008000008020000000000000004000000032
:100B6300000000402010400000000000002050F86A
:100B73008010A0404010A820000000089820082002
:100B830050F080108888606020F8200808888880EA
:100B930088808080882010A080A8C8888888888062
:100BA3002088888850881040801088001070B070AA
:100BB30068704088B060309020D0B070F068B0703A
:100BC300E08888888888F8402010A800000000008A
:100BD3000020005070204000401070F800F8001012
:100BE300A82010109008F02070780000400010102A
:100BF3006888F08088F0F0B8F82010C080A8A88832
:100C0300F088F070208888A8205020404010000011
:100C13000008C8809888E088C82010A020A8C88849
:100C23008898C880408888885088108020081000E1
:100C330000000000000000F80840A8004010A820B1
:100C430060000020C8202008F808884088086060F9
:100C530020F82020A8F8888088808088882010A029
:100C63008088988880A8A008208888A850204040C1
:100C7300201000000078888088F84078882010C011
:100C830020A88888F0788070408888A82078204041
:100C9300201000000000000000000050F0989000B9
:100CA3002020202020006040882040881088884031
:100CB3008810602010004000A88888889080808871
:100CC300882090908088888880909008208850A8F9
:100CD30088208040101000000088888888804008A1
:100CE300882090A02088888880088008489850A889
:100CF3005008404020100000000000000020005079
:100D03002018680010400000400060807070F87088
:100D13001070704070600040080080207088F07090
:100D2300E0F8807088706088F8888870806888F040
:100D3300207020508820F870087000FC0078F07054
:100D4300787040708870609070888870800880F038
:100D5300306820508870F8302060000000000000E8
:100D63000000000000000000000000000000000080
:100D73000000000000000000000000000000000070
:100D83000000000000000000000000000000000060
:100D93000000000000000000000000000000000050
:100DA3000000000000000000000000000000000040
:100DB3000000000000000000000000000000000030
:040DC300000000002C
:00000001FF
