:020000040000FA
:1000000002004685A70C12024712002E12020F12A0
:10001000025112025B120269120222120262850C64
:10002000A72202080000020A000A0002015D758092
:10003000FFE4F5A475F1FF75D40C75FE0C75FDFF9A
:01004000229D
:100043000201C3787FE4F6D8FD75810C02008D02AE
:100053000235E493A3F8E493A34003F68001F20886
:10006300DFF48029E493A3F85407240CC8C333C4F2
:10007300540F4420C8834004F456800146F6DFE45D
:10008300800B0102040810204080900022E47E01CE
:100093009360BCA3FF543F30E509541FFEE493A3D0
:1000A30060010ECF54C025E060A840B8E493A3FAE2
:1000B300E493A3F8E493A3C8C582C8CAC583CAF06E
:1000C300A3C8C582C8CAC583CADFE9DEE780BEC24A
:1000D300D5EC30E709B2D5E4C39DFDE49CFCEE30DA
:1000E300E715B2D5E4C39FFFE49EFE120108C3E403
:1000F3009DFDE49CFC800312010830D507C3E49FF7
:10010300FFE49EFE22BC000BBE0029EF8DF084FFAE
:10011300ADF022E4CCF875F008EF2FFFEE33FEECE0
:1001230033FCEE9DEC984005FCEE9DFE0FD5F0E907
:10013300E4CEFD22EDF8F5F0EE8420D21CFEADF006
:1001430075F008EF2FFFED33FD4007985006D5F00B
:10015300F222C398FD0FD5F0EA22C0E0C0F0C0D070
:1001630075D000C000C004C005C006C007C2CFE5FB
:100173000945087004C2878015AE0AAF0B7C007D69
:10018300021200D2EFB50906EEB50802D287D3E515
:1001930009950BE50A6480F8E508648098400875C2
:1001A300080075090080080509E50970020508D0F3
:1001B30007D006D005D004D000D0D0D0F0D0E032A4
:1001C300C0E0C0D020821E7402250BF50BE4350A73
:1001D300F50AD3E50B94A0E50A6480948040067584
:1001E3000A00750BA020831974FE250BF50B74FF11
:1001F300350AF50AC3648094805006750A00750BAE
:100203000075A70053E6FDD0D0D0E0327590FF759E
:10021300A57075F2FF75D570E4F5EE75EDFF22E577
:10022300C8540453C8FB75CB3875CA9E43C80442EF
:10023300C822120003C2B4D2AF3082FD3083FA4326
:10024300E60280F5E4F5A77597DE7597AD2275A6EE
:100253000875A72075CC0822E4F5A775E34022753D
:0C026300E60275A8A022E4F5A9F5A92286
:00000001FF
