:020000040000FA
:10000000020673C0E0C083C08253917F90028DE0EE
:1000100004F0700690028CE004F0D082D083D0E02F
:0100200032AD
:0700230002077675A8F02228
:07002B000208554398102262
:100033000205C9900280EFF0120B5CAD07AC06908D
:100043000288E0FEA3E0FFC3ED9FFFEC9EFED3EF2B
:1000530094C8EE94004011900280E04440F0AF0554
:0E006300900288ECF0A3EFF0900280E0FF2204
:10007300020003E4900210F0A3F0E4900212F0A354
:10008300F0900212E0FEA3E0FFC3941EEE6480949E
:10009300805037900210E0FCA3E0FD90001075F053
:1000A30011EF120399EE75F011A42583F583E58210
:1000B3002DF582E5833CF583E4F0900213E004F030
:1000C30070BF900212E004F080B7900211E004F0D8
:1000D3007006900210E004F0900210E07004A3E0B8
:1000E30064127096120A22C2B4C2A2D2AF120BEBF0
:1000F300120AB4900214E07002A3E0700302018DAF
:10010300900218E0FEA3E0FF90020EEEF0A3EFF0E2
:100113007C007D1112028674102FF974003EFA7B65
:100123000190021AA3E075F00AA4FD1206FF9002E3
:1001330017E004F07006900216E004F0E490021455
:10014300F0A3F0C3900217E09410900216E06480CD
:1001530094804036E4F0A3F0900219E004F07006B6
:10016300900218E004F090021BE004F07006900285
:100173001AE004F090021AE07004A3E0640C700A21
:10018300120B26E490021AF0A3F090000EE0700226
:10019300A3E07003020234E490000EF0A3F0900297
:1001A3001AF0A3F0120B26E4900210F0A3F07B01E7
:1001B3007A007910FD1206FF7B017A0079217D0A0E
:1001C3001206FF7B017A0079327D141206FF7B0150
:1001D3007A0079437D1E1206FF7B017A0079547DF4
:1001E300281206FF7B017A0079657D321206FF7BB8
:1001F300017A0079877D3C1206FF7B017A007998AA
:100203007D501206FF7B017A0079A97D5A1206FF01
:100213007B017A0079BA7D641206FF7B017A00794B
:10022300CB7D6E1206FF7B017A0079DC7D781206A6
:10023300FF5391FB20A6FD4391040200F3BB01068B
:1002430089828A83E0225002E722BBFE02E32289ED
:10025300828A83E49322BB010CE58229F582E5833C
:100263003AF583E0225006E92582F8E622BBFE0632
:10027300E92582F8E222E58229F582E5833AF583CE
:10028300E49322EF8DF0A4A8F0CF8CF0A428CE8DB8
:10029300F0A42EFE22C5F0F8A3E028F0C5F0F8E59F
:1002A30082158270021583E038F02275F00875829A
:1002B30000EF2FFFEE33FECD33CDCC33CCC58233ED
:1002C300C5829BED9AEC99E58298400CF582EE9BF2
:1002D300FEED9AFDEC99FC0FD5F0D6E4CEFBE4CD10
:1002E300FAE4CCF9A88222B800C1B90059BA002DAA
:1002F300EC8BF084CFCECDFCE5F0CBF97818EF2F63
:10030300FFEE33FEED33FDEC33FCEB33FB10D70391
:10031300994004EB99FB0FD8E5E4F9FA227818EF3A
:100323002FFFEE33FEED33FDEC33FCC933C910D799
:10033300059BE99A4007EC9BFCE99AF90FD8E0E4A6
:10034300C9FAE4CCFB2275F010EF2FFFEE33FEED7C
:1003530033FDCC33CCC833C810D7079BEC9AE8994C
:10036300400AED9BFDEC9AFCE899F80FD5F0DAE42E
:10037300CDFBE4CCFAE4C8F922EB9FF5F0EA9E4208
:10038300F0E99D42F0E89C45F022ECF0A3EDF0A3E8
:10039300EEF0A3EFF022A42582F582E5F03583F594
:1003A3008322EC8EF0A4CCC5F0CCCDF8EFA4CEC55F
:1003B300F02DFDE43CFCE8A42EC8C5F03DFDE43C73
:1003C300FCEFA4FFE5F028FEE43DFDE43CFC2290B5
:1003D300026212038DE47F99FEFDFC900262E0F855
:1003E300A3E0F9A3E0FAA3E0FBD312037C50099046
:1003F30002667401F00204E5E47F797E0AFDFC9055
:100403000262E0F8A3E0F9A3E0FAA3E0FBC312035E
:100413007C401FE47FA57E0BFDFC900262E0F8A305
:10042300A3A3E0D312037C50099002667402F00286
:1004330004E5E47F4F7E09FDFC900262E0F8A3E04F
:10044300F9A3E0FAA3E0FBC312037C401EE47F7B25
:100453007E0AFDFC900262E0F8A3A3A3E0D312039B
:100463007C50089002667403F08077E47FDC7E059D
:10047300FDFC900262E0F8A3E0F9A3E0FAA3E0FB3D
:10048300C312037C401EE47F087E07FDFC900262DA
:10049300E0F8A3A3A3E0D312037C50089002667490
:1004A30004F0803EE47F267E07FDFC900262E0F8C4
:1004B300A3E0F9A3E0FAA3E0FBC312037C401EE42C
:1004C3007F527E08FDFC900262E0F8A3A3A3E0D371
:1004D30012037C50089002667405F08005E49002D4
:1004E30066F0900266E0FF22900268EFF0A3EDF061
:1004F300A3EBF090026BE0FBA3E0FAA3E0F9120296
:100503004070030205C890026EF0C3648094A0405B
:1005130008E0D3648094FE400690026E7420F0904D
:100523000269E0D3947840030205B490026EE0FFC1
:100533003395E0FE90026AE075F064A42FF582E53E
:10054300F03EF583E582241BF582E583340CF583C5
:10055300E493F9900269E0FF131313541FFE900212
:1005630068E02EFDF8C000E6FA08E6FBEF5407FC4E
:10057300E47EFFA804088005CEC313CE13D8F9F494
:10058300FFEEF45AFEEB5FD000A60608F6A805C0FE
:1005930000E6FA08E6FBE9FEE4A804088005CEC3FA
:1005A30013CE13D8F9FFEA4EFEEB4FD000A6060890
:1005B300F690026CE475F001120298900269E0244F
:1005C30006F00204F622C0E0C0F0C083C082C0D0AF
:1005D30075D000C000C001C002C003C004C005C084
:1005E30006C00775A720E5F854F0F4440F52F8AF9E
:1005F3009BEF30E360900283E06038E5A120E033B5
:1006030030010C900286E0F8A6A3E004F080069087
:100613000261E5A3F0900283E014F0E0700D300373
:1006230005300002D2FA120B748008900283E09026
:100633000285F0900284E0601C30F91930020D90BD
:100643000287E0F8E6F5A3E004F0800375A30090C9
:100653000284E014F0D007D006D005D004D003D034
:1006630002D001D000D0D0D082D083D0F0D0E032FD
:10067300787FE4F6D8FD7581300206BA020076E48D
:1006830093A3F8E493A34003F68001F208DFF48018
:1006930029E493A3F85407240CC8C333C4540F4468
:1006A30020C8834004F456800146F6DFE4800B0142
:1006B300020408102040809007E8E47E019360BCA8
:1006C300A3FF543F30E509541FFEE493A360010EDA
:1006D300CF54C025E060A840B8E493A3FAE493A301
:1006E300F8E493A3C8C582C8CAC583CAF0A3C8C522
:1006F30082C8CAC583CADFE9DEE780BE900265ED22
:10070300F0900262EBF0A3EAF0A3E9F0120A599029
:100713000267EFF0E4900266F07F21E4FBFD120B29
:1007230008C007900267E0FFC374809FFFE4940052
:10073300C313EF13FD900262E0F9A3E0FAA3E09084
:10074300026BC9F0A3EAF0A3E9F0900266E0FBD0E4
:10075300071204EB900265E0FFA3E02FFF7B007A12
:1007630000792112091C900266E004F0E0C39408AA
:1007730040A722C0E0C0F0C083C082C0D075D000C3
:10078300C002C004C005C00730984790021CE07047
:1007930004900002F0900001E599F0E0FF9002164A
:1007A300E0FCA3E0FDA3E0FAA3E090001075F011D4
:1007B300120399EA75F011A42583F583E5822DF5DB
:1007C30082E5833CF583EFF0900214E4F0A304F098
:1007D300C298D007D005D004D002D0D0D082D08325
:1007E300D0F0D0E032420288000041028A00410288
:1007F3008B0042028C0000C100C103C104C101C1CE
:1008030002410283004102840041028500410287C4
:10081300004102860041021C004100020041000326
:1008230000410000014100010042021400004202A5
:100833001600004202180000420210000042021299
:10084300000042021A000042020E000042000E00A5
:100853000000C0E0C0F0C083C082C0D075D000C02B
:1008630000C001C002C003C004C005C006C00753D6
:10087300C87F53C8FB90028AE0B401147402F07F6E
:1008830008A3E0900260F07B02E4FD1208B9800B3C
:1008930090028AE0B40304C2A6E4F0D007D006D0E5
:1008A30005D004D003D002D001D000D0D0D082D064
:1008B30083D0F0D0E032900260E0900283F0A3F0A6
:1008C300A3F0900287EFF0900286EDF0EB13920114
:1008D300EBA2E19202AFA775A720200403120BDA63
:1008E300439A0453F80F539BEF439A0830030530A0
:1008F3000002C2FA30F91F900284E0601930020D41
:10090300900287E0F8E6F5A3E004F08003E4F5A3A2
:10091300900284E014F08FA722900268EFF0A3EB1B
:10092300F0A3EAF0A3E9F07F8012003690026CEFA7
:10093300F0900268E004FF120A8890026DEFF0E481
:10094300FF900269E0FBA3E0FAA3E0F98F827583CD
:1009530000120259FE746E2FF582E43402F583EE21
:10096300F00FEFB410DBE490027EF0A3F07B017A8A
:1009730002796C7D140209D1900263EFF0A3EDF0CC
:10098300600574FFF08005E4900264F07F8012003C
:1009930036900265EFF0900263E004FF120A88903C
:1009A3000266EFF0E4FF900264E0FE74672FF582C5
:1009B300E43402F583EEF00FEFB410EAE49002772B
:1009C300F0A3F07B017A0279657D140209D19002CC
:1009D30080EBF0A3EAF0A3E9F090028AE070FA90CA
:1009E300028A7401F0A3EDF0E4FFEFC39D501D9064
:1009F3000280E0FBA3E0FAA3E0F98F827583001283
:100A03000259FE74082FF8A6060F80DEAFA7E4F59F
:100A1300A775CFFF75CEF4D2A643C8048FA7229043
:100A23000262E5A7F0120C06120BA1120BB4120C12
:100A33002D120C34120C10120C24120B43120B8BBC
:100A4300120C1A120BF912002E120026120BC79069
:100A53000262E0F5A722900268EBF0A3EAF0A3E9B3
:100A6300F0E4FF900268E0FBA3E0FAA3E0F9AE072D
:100A73000F8E8275830012025970E81FEF75F0061E
:100A8300A42402FF22EF540FC454F0FEEF54F0C429
:100A9300540F4EFF543325E025E0FEEF54CC1313DF
:100AA300543F4EFF545525E0FEEF54AAC3134EFFA7
:100AB30022D2EC30EDFDC2EDAFBDAEBE7C0C7DE4C9
:100AC3001203A5E4FB7A04F9F81202EA1203D2EF47
:100AD300B4020890000EE4F0A304F022AB07AA06C8
:100AE300120B5C900262EEF0A3EFF0120B5C90022B
:100AF30062E0FCA3E0FDC3EF9DFFEE9CFEC3EF9B12
:100B0300EE9A40E722AE05EE131313541FFEEB13C8
:100B13001313541FFDEEC39D5008EF2EF8E4F60E99
:100B230080EC22E4900262F0900262E0FFC39480C2
:100B3300500DE4FD12097B900262E004F080E9228B
:100B4300E59154045391FB7595F87594067593F8E4
:100B5300759206439104429122AFA775A71053E6FD
:100B63007F90028CE0FCA3E043E6808FA7AE04FFF6
:100B73002290028A7403F0AFA7E4F5A775CFFF753F
:100B8300CEFC43C8048FA722AF885388AF758CC0AF
:100B9300758D96EF5440FEEF54104E4288227580B7
:100BA300FF75A47075F1FF75D41FE4F5FE75FDFFA5
:100BB300227590FF75A50375F27F75D5FEE4F5EEFA
:100BC30075EDFF22E4F5B275BB0D75DF2375BC0827
:100BD30075B90343E8C022E5A1A2E69203E5F85400
:100BE3000C24FF9200D20422C2A6D2B47F0A7E0054
:100BF300120ADF020B2675A20B43A14053F8F343FD
:100C0300F80122E4F5A77597DE7597AD22E4F5A701
:100C130075E34075E10322758E0A75892243885076
:100C230022E4F5A9E5A930E7FB2275A64975A720BB
:100C33002275A720759C10220020505020C06060B0
:100C43001040000000000000702070F810F830F829
:100C530070700000080080707070F070E0F8F87039
:100C63008870388880888870F070F078F888888871
:100C73008888F87000702000400080000800300071
:100C83008020108060000000000000004000000091
:100C930000000030206000000000000000205050E1
:100CA30078C8902020202020000000008860881051
:100CB30030804008888860601000408808888888F1
:100CC300908080888820109080D888888888888041
:100CD3002088888888880840001050002000800001
:100CE3000800487880000080200000000000000019
:100CF3004000000000000040201040000000000001
:100D0300002050F88010A0404010A82000000008E8
:100D13009820082050F080108888606020F8200810
:100D23000888888088808080882010A080A8C88850
:100D330088888880208888885088104080108800A0
:100D43001070B07068704088B060309020D0B07080
:100D5300F068B070E08888888888F8402010A80080
:100D6300000000000020005070204000401070F888
:100D730000F80010A82010109008F02070780000F0
:100D8300400010106888F08088F0F0B8F82010C098
:100D930080A8A888F088F070208888A82050204078
:100DA300401000000008C8809888E088C82010A080
:100DB30020A8C8888898C880408888885088108070
:100DC3002008100000000000000000F80840A80000
:100DD3004010A82060000020C8202008F8088840A0
:100DE3008808606020F82020A8F8888088808088A0
:100DF300882010A08088988880A8A008208888A8C8
:100E030050204040201000000078888088F8407807
:100E1300882010C020A88888F0788070408888A82F
:100E23002078204020100000000000000000005047
:100E3300F0989000202020202000604088204088E7
:100E4300108888408810602010004000A888888897
:100E530090808088882090908088888880909008EF
:100E6300208850A8882080401010000000888888BF
:100E730088804008882090A020888888800880087F
:100E8300489850A85008404020100000000000007F
:100E930000200050201868001040000040006080CF
:100EA3007070F8701070704070600040080080200F
:100EB3007088F070E0F8807088706088F8888870B7
:100EC300806888F0207020508820F870087000FC3B
:100ED3000078F070787040708870609070888870C7
:100EE300800880F0306820508870F830206000005F
:100EF30000000000000000000000000000000000EF
:100F030000000000000000000000000000000000DE
:100F130000000000000000000000000000000000CE
:100F230000000000000000000000000000000000BE
:100F330000000000000000000000000000000000AE
:100F4300000000000000000000000000000000009E
:080F5300000000000000000096
:00000001FF
